:020000040800F2
:10000000300A0020D50000081D3C0008C13A000855
:1000100000000000000000000000000000000000E0
:100020000000000000000000000000008B400008FD
:1000300000000000000000005B3E0008015F0008B7
:10004000E7000008E7000008D13E0008E7000008CC
:10005000E70000085F0900086F0900087F09000831
:10006000E7000008E7000008E70000082909000889
:10007000E7000008E7000008E7000008116000083A
:10008000E7000008E7000008E700000800000000A3
:10009000E7000008E7000008E7000008E7000008A4
:1000A000E7000008E7000008E7000008E700000894
:1000B000856B0008E700000800000000E70000086A
:1000C0000348854600F07EFB00480047F9790008A8
:1000D000300A00200448804704480047FEE7FEE756
:1000E000FEE7FEE7FEE7FEE7A95F0008C1000008A3
:1000F00030B50B46014600202022012409E00D46C0
:10010000D5409D4205D31D469540491B2546954047
:1001100040191546521E002DF1DC30BD70B500248B
:100120002546002801DA01244042002901DA012590
:100130004942FFF7DDFFAC4200D04042002C00D026
:10014000494270BDF0B51FB40646002082B0054696
:100150004024019100901BE0019922460F46304651
:1001600000F03AFA049A059B801A994110D3104680
:100170001946224600F020FA361A8F41019722468E
:1001800001200021009F00F017FA38184D4100901F
:100190002046641E0028DFDC019B00982946324679
:1001A00007B0F0BD03460B439B0703D009E008C925
:1001B000121F08C0042AFAD203E00B780370401C17
:1001C000491C521EF9D27047D2B201E00270401CA5
:1001D000491EFBD270470022F6E710B513460A46C7
:1001E00004461946FFF7F0FF204610BDF0B507465C
:1001F0000846584087B0C00F049048000E4659008A
:1002000040084908BC1A884105D2384631461E4686
:1002100017460B4602465800400810434CD0300D9C
:10022000039040055900400D490D0590401A029079
:10023000402872DA18030121000B090508430190D8
:1002400004980092002805D001995242002088416C
:1002500000920190029840210A1A0199009800F03A
:10026000ABF905460C466B4607CB00F0C6F9C01942
:100270007141039A0E0D0023D71756401A467A4053
:10028000164344D0049A002A2DD0029A012A039AD8
:1002900015DC1205C01A914101263605001C71417A
:1002A000D20F059ED2070093019202962A4623465A
:1002B00000F0C3F907B0F0BD38463146FAE716053D
:1002C000224A0F46B218C01AB74101210905001C85
:1002D0004F4100187F41114618187941E20F104331
:1002E0006D19644113E0E2076D0815436408C20705
:1002F0001443039A01261205C01A91413605001CC9
:100300007141CE07400830434908C01851412A4680
:10031000234600F085F9CDE7FFE70498012240006D
:10032000C117121A00238B4104983146C417381A9A
:10033000A141EEE730B40124E407634030BC55E747
:1003400030B40124E407614030BC4FE70000E0FF17
:10035000F0B51FB488B00B9909980024484009995A
:10036000C00F490049080991C0070B990090490046
:1003700049080B9109990898A64608431CD00B9987
:100380000A98084318D0099801244000420D4800FB
:10039000410D099824050003000B204309900B9898
:1003A0000003000B20430B9050181C4940180022FA
:1003B00001901446104605E0002001460DB0F0BD46
:1003C000032801DA034600E003239C46C11A0AAE63
:1003D0000AE05F0008ADED5B4F00F75B7D4300274F
:1003E000AA187C41491C5B1E6145F2DD410004AB4B
:1003F0005A522104120C0A43240C401C0828DFDB4B
:10040000019802900099704601910090059B049A12
:100410000799069800F011F9D0E700000DFCFFFFE6
:10042000F0B50C465C4085B0E40FE40703944C0043
:100430000026640859009446490802460296224361
:1004400021D062460A431ED06200570D4A000E03B7
:100450002303550D012402462C492405781B1B0B50
:10046000360B401823432643614600901C46501A21
:10047000B44103D30098401C009002E09218009809
:100480005B41002803DA0020014605B0F0BD0020E2
:10049000012109050746864611E064461D46141BE6
:1004A000B54106D36546521BB341744607430C431E
:1004B000A646CD0740084908284392185B410546E7
:1004C0000D43EAD11046184313D0604619465040F8
:1004D0007140084306D06046101AB34106D201228B
:1004E000002306E000220123DB0702E00122D243C1
:1004F0005310009874460105381C6141029C039D0D
:100500000019694100F08CF8BFE70000FD0300000E
:100510000EB5C217C10F5040CA0740180021054B45
:100520000293019200910A460B4600F086F803B050
:1005300000BD0000330400000EB505490291002102
:1005400000910A460B46019100F077F803B000BD18
:10055000330400004A0009030123090B1B0519435A
:10056000094B10B5520D9A4201DA002010BD064B1E
:1005700034339A4203DC9A1A00F02EF810BD034976
:100580005118884010BD0000FF030000CDFBFFFFA5
:1005900010B5002904DB0124E40740428C412146C8
:1005A000002B04DB1C460123DB075242A341994286
:1005B00000D1904210BD000010B5202A04DB014696
:1005C000203A9140002010BD914020239C1A034600
:1005D000E3401943904010BD10B5202A04DB0846C3
:1005E000203AD040002110BD0B46D340D0402024FB
:1005F000A21A91400843194610BD10B5202A06DB07
:10060000CB170846203A1041C1170B4306E00B46B2
:100610001341D0402024A21A91400843194610BD2E
:1006200010B5002B08DA0024401C614192185B4190
:100630001A4301D14008400010BDF0B51FB482B08C
:1006400005460C0003D0084606F0B6FA02E006F0B4
:10065000B3FA20300246009021462846FFF7ACFF4F
:10066000049B059A04460F4618431143084314D0CF
:10067000184610431BD0009840210A1A18460599C5
:10068000FFF7AAFF05460E46009A05990498FFF762
:1006900093FF084305D0012004E02046394607B007
:1006A000F0BD0020C11705430E432C43374300998A
:1006B0000E986305401A7905E40A00220C43FD0AEE
:1006C0000A3002D500200146E9E701051019694109
:1006D0000C9C0D9D00196941FFF7A2FFDFE70000A8
:1006E000F8B50546480040080C46284304D0600091
:1006F000184A400D904201DD2846F8BD15493539AC
:10070000884210DC88420BDB290D200308432903B3
:10071000014305D0E00F1049C00741180020F8BD83
:1007200000200146F8BD161A4020821B28462146AB
:10073000FFF742FF07460091284621463246FFF761
:100740004BFF3A46009BFFF76BFF3246FFF734FF43
:10075000F8BD0000330400000000F03F4A00090328
:100760000123090B1B0519430A4B10B5520D9A4280
:1007700002DA0020014610BD064B34339A4203DCF6
:100780009A1AFFF729FF10BD034BD218FFF714FF89
:1007900010BD0000FF030000CDFBFFFF10B50029D6
:1007A00004DB0124E40740428C412146002B04DB9A
:1007B0001C460123DB075242A3418B4200D18242F7
:1007C00010BD0000064C0125064E05E0E36807CC8D
:1007D0002B430C3C98471034B442F7D3FFF774FC1A
:1007E000DC7F0008FC7F000810B586B0044600BF1F
:1007F000002C06D0012C13D0022C20D0032C3CD18D
:100800002CE000BF2748C06A022108432549C8627E
:100810000846C06A02210840009000BF00BF2DE0DA
:1008200000BF2048C06A012108431E49C86208462B
:10083000C06AC007C00F009000BF00BF1EE000BF2D
:100840001848C06A022108431649C8620846C06AAF
:1008500002210840009000BF00BF0FE000BF114818
:10086000C06A022108430F49C8620846C06A0221D3
:100870000840009000BF00BF00E000BF00BF00BF05
:1008800060000949085A019001200290002003905D
:1008900003200490A100054A505801A900F06AFB0A
:1008A00006B010BD00100240987F000838000020FC
:1008B00010B504466200044B995AA200034B9858A5
:1008C000002200F053FC10BD987F00083800002083
:1008D00010B504466200044B995AA200034B985885
:1008E000012200F043FC10BD987F00083800002072
:1008F000F0B502460020002513E0137808260BE02F
:1009000007465F40FC07E40F4010002C01D08C2705
:1009100078405B10771EFEB2002EF1D1521C6E1C87
:10092000F5B28D42E9DBF0BD10B507F011FA10BD4C
:1009300030B51C25446C2C400125A540046C656035
:10094000046863608468102C04D10468A2600468A1
:10095000E16003E00468A1600468E26030BD10B5A6
:10096000012000F0F7FA022000F0F4FA10BD10B5F3
:10097000042000F0EFFA082000F0ECFA10BD10B5EA
:10098000102000F0E7FA202000F0E4FA402000F008
:10099000E1FA802000F0DEFAFF20013000F0DAFA00
:1009A0000120400200F0D6FA0120800200F0D2FAC5
:1009B0000120C00200F0CEFA0120000300F0CAFAC4
:1009C0000120400300F0C6FA0120800300F0C2FAC3
:1009D0000120C00300F0BEFA10BD000038B5034688
:1009E00007A000680090002006E01C5C6D462D5CAE
:1009F0006C401454441CE0B28842F6DB38BD000061
:100A00006789ABCD00BF03A005F0E0FC00BF00BFCD
:100A1000FEE700004572726F725F48616E646C653C
:100A2000720A0D00024600210FE0C800094B185859
:100A3000904208D8481CC0001858904203D9C800FA
:100A4000C01800797047481CC1B21529EDD300BF0A
:100A5000FEE70000747E000810B50446002C01D1AA
:100A6000012010BD606D002806D1A0650021502036
:100A70000155204600F00EF9606D10210840102845
:100A800006D02068806804210840800800280AD029
:100A9000606D10210843606500BF002150200155A2
:100AA00000BF0120DDE7606DFF2101318843022195
:100AB00008436065206880688007800F012807D19F
:100AC00020680068C007C00F002801D0012000E0A6
:100AD000002000283AD100BF0321890760688842BE
:100AE00007D049426068884203D049006068884264
:100AF0000CD12068006980008008216808612068A6
:100B00000069616808432168086112E02068006993
:100B100080008008216808615C4880680F21890492
:100B200088435A4988600846806861680843574985
:100B3000886000BF2068C068182188432168C860A9
:100B40002068C068A16808432168C8604F48806871
:100B50000121490688434D49886008468068A18E76
:100B600049060843494988602068806801210907CF
:100B70000840002804D12068806808432168886004
:100B80002068C068424908402168C8602169E0685F
:100B9000022901D1042100E0002108432021095D40
:100BA000490308432C21095D49000843216B084390
:100BB000A16989030843E169C90308432168C96839
:100BC00008432168C860FF21C231606A884207D0AB
:100BD000A16A606A08432168C96808432168C8603F
:100BE0002120005D012813D12020005D002807D1BD
:100BF0002068C0680121090408432168C86007E033
:100C0000606D202108436065A06D01210843A06547
:100C1000E06B012817D120680069FF218900884313
:100C200021680861216C606C0843A16C084321684D
:100C300009690843216808612068006901210843A7
:100C4000216808610BE020680069C007C00F002818
:100C500005D02068006940084000216808612068CC
:100C60004069C008C0002168486120684069A16BE4
:100C70000843216848610020A065606D0221884317
:100C80000121084360650020EBE6000000270140D9
:100C90001902FEFF704770B5044600252520005D4F
:100CA000022803D00420E063012520E020680068CA
:100CB0000E218843216808602068006840084000D1
:100CC000216808601C21606C084001218140206C73
:100CD000416001212520015500BF0021242001553C
:100CE00000BFA06B002802D02046A16B8847284691
:100CF00070BD70B50446206C0568206806681C202D
:100D0000616C014004208840284000281DD0042048
:100D10003040002819D020680068202108400028B1
:100D200005D12068006804218843216808601C21DF
:100D3000606C084004218140206C4160206B0028D9
:100D40005AD02046216B884756E01C20616C014038
:100D5000022088402840002825D00220304000286A
:100D600021D02068006820210840002808D1206890
:100D700000680A2188432168086001212520015567
:100D80001C21606C084002218140206C416000BF42
:100D900000212420015500BFE06A00282CD0204605
:100DA000E16A884728E01C20616C014008208840E7
:100DB0002840002820D00820304000281CD020687F
:100DC00000680E218843216808601C21606C08407F
:100DD00001218140206C41600120E0630121252038
:100DE000015500BF00212420015500BF606B002881
:100DF00002D02046616B884770BD000070B5044684
:100E0000002C01D1012070BD244A2168881A1421C8
:100E1000FFF76EF9800060642048083820640221E2
:100E200025200155206805681D480540E168A06837
:100E300008432169084361690843A1690843E169DE
:100E40000843216A0843054320680560012189039E
:100E5000A068884217D011487830806A1C22616CE3
:100E600011400F228A4090430C49783188621C223D
:100E7000616C11406068884008497831896A08438C
:100E80000649783188620020E06301212520015560
:100E90000021242001550020B5E700000800024091
:100EA0000F80FFFFF8B504460D4616461F4600208A
:100EB000009000BF2420005D012801D10220F8BD70
:100EC00001212420015500BF2520005D01282DD1DE
:100ED0000221252001550020E063206800684008B9
:100EE0004000216808603B46324629462046FFF70D
:100EF0001FFD206B002806D0206800680E210843E3
:100F0000216808600BE0206800680421884321689C
:100F10000860206800680A2108432168086020688A
:100F20000068012108432168086006E000BF002135
:100F30002420015500BF022000900098BFE701B5B2
:100F4000009802F0F3FA08BD10B50446204602F0FE
:100F50000BFA10BD10B50446054840692040002832
:100F600004D0034844612046FFF7EEFF10BD0000A7
:100F70000004014070B50346002200240020DFE099
:100F8000012696400D6835402C46002C77D04D68E0
:100F9000022D02D04D68122D15D1D508AE001D4688
:100FA0002035A8595507EE0E0F25B5400646AE432D
:100FB00030465607F60E0D69B5402843D508AD00FA
:100FC0001E46203670514D68012D08D04D68022D07
:100FD00005D04D68112D02D04D68122D18D198689A
:100FE00056000325B5400646AE4330465600CD6850
:100FF000B540284398605868012595400646AE43A1
:10100000304610264D6835402D09954028435860DC
:10101000186856000325B5400646AE4330460D79A4
:10102000AD07AD0F5600B54028431860D86856008C
:101030000325B5400646AE43304656008D68B540A0
:101040002843D860012636074D683540B54276D131
:101050003E4D6D6B012635433C4E75633C4D960805
:10106000B600A85995072E0F0F25B5400646AE438A
:10107000304605252D07AB4202D100251AE05EE07F
:10108000344DAB4201D1012514E0334DAB4201D1C7
:1010900002250FE0314DAB4201D103250AE0304D6E
:1010A000AB4201D1042505E02E4DAB4201D105250F
:1010B00000E006259607360FB5402843244D9608D4
:1010C000B600A851284D28680546A54328460126A4
:1010D00036044D683540B54202D1054625432846C1
:1010E000214D286068680546A543284601267604F8
:1010F0004D683540B54202D10546254328461A4D74
:101100006860A8680546A5432846012636054D684F
:101110003540B54202D1054625432846124DA86008
:10112000E8680546A5432846012676054D68354002
:10113000B54202D10546254328460B4DE860521CB6
:101140000D68D540002D00D01AE770BD0010024098
:10115000080001400004005000080050000C00503E
:1011600000100050001C005000040140002A01D073
:10117000816100E0816270470148006870470000AB
:101180005000002002480068401C01490860704778
:101190005000002010B500240848006802210843D0
:1011A00006490860032000F00BF8002801D0012454
:1011B00001E000F009F8204610BD000000200240C8
:1011C000014600207047000010B50C48806B0121DB
:1011D000090708430949886300F040F800F034F833
:1011E00007480068082108430549086000BF00BFA0
:1011F00000F020F802F0F8F810BD000000100240E6
:10120000002002400146002905DBCB06DB0E01224F
:101210009A40024B1A6000BF7047000000E100E0F6
:1012200070B504460D4616462946204605F002FDD7
:1012300070BD00000348006801218902084301498C
:1012400008607047007000400348006801214902AF
:101250000843014908607047007000400348006877
:101260001021884301490860704700000070004069
:10127000F8B5044620212068084020287CD1206849
:101280000840202800D100BF00279148806B012131
:1012900009070840002805D18D48806B08438C4918
:1012A000886301278B480068FF210131084000282E
:1012B00016D188480068084386490860FFF75CFF3C
:1012C000064606E0FFF758FF801B642801D903207B
:1012D000F8BD80480068FF21013108400028F1D0A6
:1012E0007B480568032109050D4060680840A84255
:1012F0000DD0091160680840884208D17448006820
:10130000012149040840884201D10120E0E77048EA
:10131000403000690321090408400546002D3DD0F6
:1013200060680840A84239D0202120680840202861
:1013300034D16748403000690321090488430546D9
:101340006348403000690121C904084360494031C5
:101350000861084600690121C90488435C4940319D
:10136000086108460561801528408915884215D115
:10137000FFF702FF064608E039E0FFF7FDFE801B9D
:101380005549884201D90320A2E7514840300069FD
:10139000012149020840400A0028EED000BF00BFEA
:1013A000032109046068084088420AD1484800685F
:1013B000090188430322120561681140084344492A
:1013C000086000BF4248403000690322120461688F
:1013D000114008433E494031086100BF012F05D14B
:1013E0003B48806B890588433949886300BF207872
:1013F000C007C00F002809D035484030C0688008B9
:101400008000A168084332494031C8600221206849
:101410000840022809D12E484030C0680C2188437A
:10142000E16808432A494031C86004212068084027
:1014300004280AD126484030C06803218902884325
:101440002169084322494031C860082120680840CA
:1014500008280AD11E484030C06803210903884388
:10146000616908431A494031C860FF210131206891
:10147000084088420AD116484030C0680321090458
:101480008843A169084312494031C860402120685F
:101490000840402809D10E484030C06809058843FB
:1014A000216A08430A494031C86080212068084009
:1014B00080280AD106484030C06803218904884347
:1014C000E169084302494031C860002000E700009C
:1014D000001002400070004088130000F8B5044678
:1014E0000D46002C01D10120F8BD79480068C007E5
:1014F000C00FA8420ED2764800684008400028433A
:101500007349086008460068C007C00FA84201D0B0
:101510000120E9E7022120680840022807D16D4830
:10152000C068F0218843A16808436A49C8602078F0
:10153000C007C00F00284CD06068022809D1654858
:101540000068012149040840400C002824D10120F2
:10155000CAE76068032809D15E480068012149068E
:101560000840400E002817D10120BDE7606801281F
:1015700008D15848006804210840800800280BD191
:101580000120B1E753480068012149020840400AA0
:10159000002801D10120A7E74E48C06880088000DC
:1015A000616808434B49C860FFF7E6FD064660687E
:1015B00002280FD107E0FFF7DFFD801B4649884274
:1015C00001D9032090E74348C0680C21084008284F
:1015D000F1D134E0606803280FD107E0FFF7CCFDBC
:1015E000801B3D49884201D903207DE73948C06806
:1015F0000C2108400C28F1D121E0606801280FD1AE
:1016000007E0FFF7B9FD801B3349884201D9032069
:101610006AE73048C0680C2108400428F1D10EE088
:1016200007E0FFF7A9FD801B2B49884201D9032061
:101630005AE72848C0680C2108400028F1D1244806
:101640000068C007C00FA8420ED9214800684008B2
:10165000400028431E49086008460068C007C00FC4
:10166000A84201D001203FE7042120680840042857
:1016700008D11848C068072109028843E168084377
:101680001449C860082120680840082809D1114879
:10169000C0680721C90288432169C90008430D4970
:1016A000C86000F049F80B49C968F02211400909E7
:1016B0000A4A515CC8400A4908600320FFF780FDD0
:1016C0000746002F01D038460EE700200CE7000047
:1016D000002002400010024088130000A37F000891
:1016E0004C00002001480068704700004C000020BA
:1016F00000B5FFF7F7FF0549C9680722120211403C
:10170000090A034A515CC84000BD000000100240B5
:10171000B37F000800B5FFF7E5FF0549C968072258
:10172000D2021140C90A034A515CC84000BD000002
:1017300000100240B37F0008FEB52E48C7680C2099
:101740003840002845D0042804D008280CD00C28A4
:101750003ED10BE02748006810210840002801D046
:10176000254C00E0254C41E0254C3FE00F20800453
:101770003840800C23490E5C032080053840800DE2
:10178000401C01901B48C068012109040840002842
:1017900007D01B49714308460199FEF7A9FC05468D
:1017A00014E01448006810210840002807D01249AE
:1017B000714308460199FEF79BFC054606E00F4978
:1017C000714308460199FEF793FC05462C460DE04F
:1017D00000BF08484068072149030840400B0090BB
:1017E0000098401C01218140CC0300BF00BF20466F
:1017F000FEBD00000010024000093D000024F4007E
:1018000000127A00BB7F0008FEB50446002C01D10F
:101810000120FEBDFA48C7680C210F40C0680121B5
:101820000904084001902078C007C00F002872D03A
:10183000082F04D00C2F0FD1019888420CD1F0480A
:101840000068012149040840400C002863D060680A
:10185000002860D10120DCE700BF01210904606895
:10186000884205D1E64800680843E549086027E05A
:1018700005210904606888420ED1E1480068012111
:1018800089040843DE49086008460068012109040C
:101890000843DB49086013E0D948006801210904C6
:1018A0008843D749086008460068012109040840B8
:1018B000009000BFD248006889008843D049086082
:1018C00000BF6068002813D0FFF756FC054606E00D
:1018D000FFF752FC401B642801D9032099E7C84850
:1018E0000068012149040840400C0028F0D012E0B3
:1018F000FFF742FC054606E0FFF73EFC401B64286C
:1019000001D9032085E7BE48006801214904084049
:10191000400C0028F0D102212068084002286BD139
:10192000E66820203040002809D0B5480068202112
:101930000843B34908602021304688430646042FF7
:1019400004D00C2F33D10198002830D1AC48006866
:10195000042108408008002803D0002E01D1012076
:1019600057E7A74840681F210902884321690902F7
:101970000843A3494860084600680921884330436A
:101980009F490860FFF7D8FE9D49C968F0221140C1
:1019900009099C4A515CC8409B4908600320FFF735
:1019A0000FFC0290029800283FD0029831E7002EE9
:1019B00023D0934800680921884330439049086048
:1019C000FFF7DAFB054606E0FFF7D6FB401B0228CF
:1019D00001D903201DE78A480068042108408008D7
:1019E0000028F1D0864840681F21090288432169F8
:1019F000090208438249486017E0814800684008AE
:101A000040007F490860FFF7B7FB054606E0FFF797
:101A1000B3FB401B022801D90320FAE6784800688E
:101A20000421084080080028F1D1102120680840D6
:101A3000102867D1002F36D171480068490108404D
:101A4000400A002804D0E069002801D10120E0E626
:101A50006B484068072149038843616A0843684925
:101A60004860084640680002000A218C09060843C5
:101A700063494860606A400B401C01218140C803F3
:101A80005F49C968F022114009095E4A515CC840AB
:101A90005D4908600320FFF793FB0290029800283D
:101AA0004BD00298B5E6E06900282CD05448006875
:101AB000FF210131084352490860FFF75DFB0546ED
:101AC00006E0FFF759FB401B022801D90320A0E6DE
:101AD0004B480068012149020840400A0028F0D024
:101AE00047484068072149038843616A08434449DD
:101AF0004860084640680002000A218C0906084335
:101B00003F49486019E03E480068FF2101318843A1
:101B10003B490860FFF730FB054606E0FFF72CFB6A
:101B2000401B022801D9032073E6354800680121D3
:101B300049020840400A0028F0D1082120680840E6
:101B4000082839D1606900281BD02D484030006931
:101B5000012108432A4940310861FFF70DFB054682
:101B600006E0FFF709FB401B022801D9032050E6DD
:101B70002348403000690221084040080028F0D086
:101B80001AE01F4840300069400840001C494031BD
:101B90000861FFF7F1FA054606E0FFF7EDFA401B92
:101BA000022801D9032034E615484030006902219B
:101BB000084040080028F0D104212068084004288B
:101BC00079D1002000900E48806B890608400028DB
:101BD00006D10B48806B08430949886301200090B7
:101BE0000A480068FF210131084000281ED107483B
:101BF0000068084305490860FFF7BEFA05460EE095
:101C000000100240A37F00084C000020007000403C
:101C1000FFF7B2FA401B642801D90320F9E5B34865
:101C20000068FF21013108400028F1D000BFFF21EA
:101C30000131A068884205D1AD4800690843AC492C
:101C4000086130E0A06800280DD1A9480069FF2193
:101C500001318843A649086108460069091588438F
:101C6000A34908611FE005210902A06888420DD13F
:101C70009F4800690121890208439D49086108467F
:101C80000069891508439A4908610CE09848006981
:101C9000FF2101318843964908610846006909150A
:101CA00088439349086100BFA068002815D0FFF75A
:101CB00063FA054608E031E0FFF75EFA401B8D4904
:101CC000884201D90320A4E589480069012149021D
:101CD0000840400A0028EFD013E0FFF74DFA054610
:101CE00007E0FFF749FA401B8249884201D90320E7
:101CF0008FE57F480069012149020840400A002819
:101D0000EFD10098012808D179484038806B012133
:101D10000907884376494039886300BF202120683D
:101D20000840202852D1A06900282BD000BF70485D
:101D300040388068012108436D4940398860084671
:101D4000406B012108436A49403948636A48006A88
:101D50000121490308436849086200BFFFF70CFAF4
:101D6000054606E0FFF708FA401B022801D90320C8
:101D70004FE55F484038806802210840400800284D
:101D8000F0D023E000BF5A48403880684008400047
:101D90005749403988605848006A012149038843FF
:101DA0005549086200BFFFF7E7F9054606E0FFF76F
:101DB000E3F9401B022801D903202AE54C484038AA
:101DC00080680221084040080028F0D1A06A00285D
:101DD0004CD00C2F69D0A06A022848D14448403822
:101DE0000068012109068843414940390860FFF72E
:101DF000C3F9054606E0FFF7BFF9401B022801D9E9
:101E0000032006E53A4840380068012149060840A9
:101E1000400E0028EFD1216BE06A0843616B084354
:101E200033494039C968FD221204914308433049BF
:101E30004039C860084600680121090608432C495A
:101E400040390860FFF798F9054606E0FFF794F976
:101E5000401B022801D90320DBE4254840380068F4
:101E6000012149060840400E0028EFD03CE0204800
:101E7000403800680121090688431D49403908603F
:101E8000FFF77AF9054606E0FFF776F9401B0228CE
:101E900001D90320BDE416484038006801214906F5
:101EA0000840400E0028EFD11EE0A06A012800D1B2
:101EB000AFE40F484038C06801900121090401983F
:101EC0000840E16A88420DD10F2189040198084039
:101ED000216B884206D10321890501980840616B76
:101EE000884201D0012094E4002092E40070004078
:101EF000401002408813000000000140014600BF6E
:101F00002020405C012801D10220704701222020BE
:101F1000425400BF02222120425400BFCA200A6856
:101F2000506253200A68506200BF0868806820220F
:101F300010430A68906000BFFF200A68506200BF2B
:101F400001222120425400BF00222020425400BF21
:101F50000020DAE710B5044604F0FEF810BD70B5B5
:101F600004460E4600BF2020005D012801D102205A
:101F700070BD01212020015500BF02212120015503
:101F800000BFCA202168486253202168486200BF10
:101F9000FF20013086422CD120688068314688437A
:101FA00021688860206880683101884321688860E2
:101FB000FFF7E2F8054615E0FFF7DEF8401B7D214C
:101FC000C90088420ED900BFFF202168486200BFC7
:101FD00003212120015500BF00212020015500BF11
:101FE0000320C5E72068C068C007C00F0028E3D001
:101FF0002EE02068806801214902884321688860BA
:102000002068806801214903884321688860FFF7C0
:10201000B3F8054615E0FFF7AFF8401B7D21C90076
:1020200088420ED900BFFF202168486200BF03210B
:102030002120015500BF00212020015500BF0320B1
:1020400096E72068C0680221084040080028E2D0D6
:1020500000BFFF202168486200BF012121200155F7
:1020600000BF00212020015500BF002080E70000B4
:10207000F0B506460C4617463068406812490840DD
:102080000546FF2000042840000CE0701F200002DD
:102090002840000A6070A806800EA0700720400348
:1020A0002840400B2070002F0BD1E07801F0D6FEC5
:1020B000E070607801F0D2FE6070A07801F0CEFE92
:1020C000A0700020F0BD00003FFFFF00F0B5054606
:1020D0000C4617462868806A6060286800694004DA
:1020E000400CA060286800681249084006463F205E
:1020F00000043040000C20707F2000023040000AB5
:1021000060707006400EA070012080053040000C09
:10211000E070002F0BD1207801F0A0FE20706078D5
:1021200001F09CFE6070A07801F098FEA070002085
:10213000F0BD00007F7F7F0010B50446002C01D168
:10214000012010BD2120005D002805D100212020A4
:102150000155204600F06EF802212120015500BFF4
:10216000CA202168486253202168486200BF204687
:1021700001F08EFE002809D000BFFF2021684862D0
:1021800000BF0421212001550120DAE72068806882
:102190002749084021688860216960680843A1696F
:1021A0000843216889680843216888602168E068DD
:1021B00008612068006921890904084321680861D1
:1021C0002068C068802188432168C8602068C06C8E
:1021D000800880002168C8646169E069084321685B
:1021E000C96C08432168C8642068806820210840C1
:1021F000002813D1204600F0A9FA00280ED000BF15
:10220000FF202168486200BF04212120015500BF42
:1022100000212020015500BF012092E700BFFF20D0
:102220002168486200BF012121200155002088E774
:10223000BFFF8FFF10B598B0044638210AA8FDF7FC
:10224000CAFF242101A8FDF7C6FF04200A90002040
:102250001490FF2001300C900AA8FFF7D5FA00284F
:1022600001D0FEF7CFFB20200190C002029001A810
:10227000FEF7FEFF002801D0FEF7C4FB0848006906
:102280000121890408430649086100221146022001
:10229000FEF7C6FF0220FEF7B5FF18B010BD000024
:1022A00040100240F7B582B004460D4600BF202022
:1022B000005D012802D1022005B0F0BD01212020DF
:1022C000015500BF022121200155049800282AD180
:1022D0002068806840210840002800D002E00020EB
:1022E000E87000BFE869002800D100E000BF28784E
:1022F00001F0C0FD0704687801F0BCFD000207434F
:10230000A87801F0B7FD0743E878000407432021CF
:10231000485D01F0AFFD00060743E86907436869BF
:102320000743019721E02068806840210840002889
:1023300000D002E00020E87000BFE869002800D16A
:1023400000E000BF28780004697809020843A978F2
:102350000843E978090408432021495D0906084338
:10236000E9690843696908430190A96968680843F5
:10237000009000BFCA20216848625320216848624B
:1023800000BFFF210131686A884241D1206880681E
:102390008843216888602068C068802108404D49D2
:1023A00008432168C860FEF7E7FE064615E0FEF721
:1023B000E3FE801B7D21C90088420ED900BFFF20AB
:1023C0002168486200BF03212120015500BF002180
:1023D0002020015500BF03206EE72068C068C007B9
:1023E000C00F0028E3D001982168C86100982168D7
:1023F000486420688068FF210131084321688860B3
:10240000206880680121090308432168886043E04F
:10241000206880680121490288432168886020681B
:10242000C068802108402C4908432168C860FEF735
:10243000A3FE064615E0FEF79FFE801B7D21C90026
:1024400088420ED900BFFF202168486200BF0321E7
:102450002120015500BF00212020015500BF03208D
:102460002AE72068C0680221084040080028E2D01E
:102470000198216808620098216888642068806853
:102480000121490208432168886020688068012191
:102490004903084321688860104800680121490405
:1024A00008430E4908600846806801214904084332
:1024B0000A49886000BFFF202168486200BF0121EF
:1024C0002120015500BF00212020015500BF002020
:1024D000F2E600007FFEFFFF7FFDFFFF00040140EA
:1024E000F7B504460D4600BF2020005D012801D14C
:1024F0000220FEBD01212020015500BF0221212024
:1025000001550298002809D1687810210840102848
:1025100004D16878EF2108400A30687002980028DA
:1025200011D1E87801F0A6FC0704687801F0A2FC5C
:1025300000020743A87801F09DFC07432878400378
:102540003E4606430AE0E878000469780902084339
:10255000A9780843297849030843064600BFCA20E2
:102560002168486253202168486200BF204601F07C
:102570008FFC00280ED000BFFF202168486200BFFA
:1025800004212120015500BF00212020015500BF5A
:102590000120AEE719483040216848602068C068D3
:1025A000802188432168C860206880682021084015
:1025B000002813D1204600F0C9F800280ED000BF33
:1025C000FF202168486200BF04212120015500BF7F
:1025D00000212020015500BF01208AE700BFFF2015
:1025E0002168486200BF01212120015500BF002160
:1025F0002020015500BF00207BE700003FFFFF00C7
:10260000F7B504460D4600BF2020005D012801D12A
:102610000220FEBD01212020015500BF0221212002
:102620000155029800281BD120688068402108408D
:10263000002800D002E00020E87000BF287801F0F8
:1026400019FC0704687801F015FC00020743A8781C
:1026500001F010FC0743E87800043E46064314E00E
:102660002068806840210840002800D002E0002057
:10267000E87000BF28780004697809020843A97847
:102680000843E97809040843064600BFCA202168C8
:10269000486253202168486200BF204601F0F8FBE1
:1026A00000280ED000BFFF202168486200BF04212F
:1026B0002120015500BF00212020015500BF01202D
:1026C000A7E7214830402168086020688068012120
:1026D00089048843216888602969E868084321687B
:1026E00089680843216888602068C0688021884321
:1026F0002168C8602068806820210840002813D124
:10270000204600F023F800280ED000BFFF202168EB
:10271000486200BF04212120015500BF0021202074
:10272000015500BF012074E700BFFF202168486207
:1027300000BF01212120015500BF002120200155AB
:1027400000BF002065E700007F7F7F0070B5044672
:102750002068C068A02188432168C860FEF70CFD8E
:10276000054608E0FEF708FD401B7D21C9008842B0
:1027700001D9032070BD2068C068202108400028CE
:10278000F0D00020F6E710B50446002C01D101205E
:1027900010BD606A002800D100BF0021A162512055
:1027A000005D002804D150200155204600F034F887
:1027B000022151200155206800684021884321688A
:1027C0000860A16860680843E1680843216908431C
:1027D0006169084301225202A16911400843E1697D
:1027E0000843216A0843A16A084321680860A06978
:1027F000000C04210840616A084321684860206891
:10280000C069910088432168C8610020606501218A
:10281000512001550020BBE77047FFB587B0044643
:102820001D46109E0120039000200290E0680028C1
:1028300004D1E068002802D1012D00D900BF00BFFB
:102840005020005D012802D102200BB0F0BD012113
:102850005020015500BFFEF78FFC07465120005D58
:102860000490606805900695049801280DD0FF211A
:1028700005310598884205D1A068002802D1049846
:10288000042802D002200290E9E00898002804D031
:102890000998002801D0002D02D101200290DEE02D
:1028A0005120005D042802D005215120015500204F
:1028B00060650998A063E587A58708982063E58689
:1028C000A5860020206460642068006840210840DC
:1028D000402804D02068006808432168086001216E
:1028E000C902E06888424FD16068002802D006988B
:1028F000012809D1206B00882168C860206B801CEA
:102900002063E08E401EE08637E020688068022168
:102910000840022811D1E08E00280ED0039801282B
:102920000BD1206B00882168C860206B801C20635D
:10293000E08E401EE0860020039020688068C0077B
:10294000C00F00280ED0E08F00280BD02068C06890
:10295000A16B0880A06B801CA063E08F401EE08705
:1029600001200390FEF708FCC01BB04205D3701C89
:10297000002802D00320029071E0E08E0028C4D12C
:10298000E08F0028C1D150E06068002802D006988E
:10299000012809D1206B007821680873206B401C46
:1029A0002063E08E401EE08639E0206880680221C6
:1029B0000840022811D1E08E00280ED0039801288B
:1029C0000BD1206B007821680873206B401C2063BA
:1029D000E08E401EE0860020039020688068C007DB
:1029E000C00F00280ED0E08F00280BD02068C068F0
:1029F000A16B0870A06B401CA063E08F401EE087B5
:102A000001200390FEF7B8FBC01BB04202D3701C3C
:102A1000002801D1002E02D1032002901FE0E08E99
:102A20000028C2D1E08F0028BFD13A463146204667
:102A300001F0AAFA002804D001200290202060654D
:102A40000DE0A068002809D100BF01902068C0688F
:102A5000019020688068019000BF00BF00BF012185
:102A60005120015500BF00215020015500BF0298A0
:102A7000EBE610B50446002C01D1012010BD392031
:102A8000005D002805D1002138200155204600F0C6
:102A90000CF8022139200155211D206803F0C0FAED
:102AA0000121392001550020E8E7704701460868F8
:102AB000C068012318430B68D86008688068420723
:102AC000520F062A05D008680068012318430B68D6
:102AD000186000207047000001460868C068400880
:102AE00040000A68D06000BF0868006A064A1040CB
:102AF000002805D108680068400840000A68106096
:102B000000BF00207047000011110000704710B591
:102B100004462068006902210840400800281CD0B3
:102B20002068C06808404008002816D0481F216867
:102B3000086101202076206880698007800F0028C6
:102B400003D02046FFF7E2FF05E0204600F09EF8A4
:102B5000204600F0ABF800202076206800690421B0
:102B60000840800800281DD02068C0680840800800
:102B7000002817D0C8432168086102202076206809
:102B80008069032109020840002803D02046FFF78E
:102B9000BDFF05E0204600F079F8204600F086F8F9
:102BA000002020762068006908210840C00800281D
:102BB0001CD02068C0680840C008002816D0C84350
:102BC00021680861042020762068C0698007800F92
:102BD000002803D02046FFF799FF05E0204600F0CB
:102BE00055F8204600F062F8002020762068006941
:102BF00010210840000900281DD02068C068084046
:102C00000009002817D0C8432168086108202076F1
:102C10002068C069032109020840002803D020462B
:102C2000FFF774FF05E0204600F030F8204600F082
:102C30003DF80020207620680069C007C00F012100
:102C40004840484000280CD02068C06808404840F0
:102C50004840002805D0C81E21680861204600F0C1
:102C600027F82068006940210840800900280BD01F
:102C70002068C06808408009002805D0C843216842
:102C80000861204600F08EF810BD000010B5044623
:102C9000207E012807D10220FDF70AFE002002490C
:102CA000087004F0CBFF10BD6200002070470000E8
:102CB00010B5044634480078401C33490870334846
:102CC00000780D21091A01208840314909880840FF
:102CD000002803D001202F49087002E000202D4970
:102CE000087029480078402808D10020264908703B
:102CF00026480078401C2549087010BD22480078FD
:102D0000202815DA23480078002808D10220FDF792
:102D1000DFFD01202049087004F098FF1DE002202B
:102D2000FDF7C6FD00201C49087004F087FF14E081
:102D300018480078002808D00220FDF7C9FD0120BE
:102D40001549087004F082FF07E00220FDF7B0FD8E
:102D500000201149087004F071FF0C4800780E281B
:102D600010D10220FDF7A4FD00200B49087004F0EB
:102D700065FF0020054908700120084908700848CF
:102D8000FFF7AAFE00BFB8E75F0000206000002048
:102D90006400002061000020620000206300002029
:102DA000540400207047704770470000FEB5044689
:102DB0002068C56920680668206887682807000FB2
:102DC0000190019800280ED12020284000280AD028
:102DD00020203040002806D0206E002802D0204657
:102DE000216E8847FEBD019800287DD0F807C00FEE
:102DF000002804D1FF20213030400028F5D0E8071A
:102E0000C00F00280BD0FF2001303040002806D032
:102E1000012021680862E06F01210843E067022079
:102E2000284000280AD0F807C00F002806D002204A
:102E300021680862E06F04210843E067042028400D
:102E400000280AD0F807C00F002806D00420216807
:102E50000862E06F02210843E0670820284000284C
:102E60000ED020203040002803D1F807C00F0028E2
:102E700006D0082021680862E06F08210843E06757
:102E8000E06F002846D020202840002809D02020CC
:102E90003040002805D0206E002802D02046216E48
:102EA0008847E06F009020688068402108404028F3
:102EB00004D0082100980840002826D0204603F0BE
:102EC00000FC2068806840210840402819D1206813
:102ED0008068884321688860E06E00280DD025480E
:102EE000E16E8863E06E00E015E0FDF7D4FE002897
:102EF00010D0E06E816B88470CE02046FFF754FF4E
:102F000008E02046FFF750FF04E02046FFF74CFFA3
:102F10000020E06766E701200005284000280CD06B
:102F2000012080053840002807D0012000052168D5
:102F300008622046FFF737FF54E78020284000282A
:102F40000AD080203040002806D0606E002802D0D1
:102F50002046616E884745E740202840002807D07A
:102F600040203040002803D0204603F0BCFB39E766
:102F700000BF37E71166000810B50446002C01D1E8
:102F8000012010BDA069002800D000E000BF606FE4
:102F9000002805D1002170200155204600F02CF8B2
:102FA00024206067206800684008400021680860AD
:102FB000204603F0B1FB012800D1E2E7606A002857
:102FC00002D0204603F074FA206840680921C90243
:102FD000884321684860206880682A2188432168E6
:102FE0008860206800680121084321680860204645
:102FF00003F0D6FAC5E7000038B50446304920682A
:1030000088425CD100BF2F48C06A012108432D4986
:10301000C8620846C06AC007C00F009000BF00BF6A
:1030200000BF0846C06A012108432649C862084615
:10303000C06AC007C00F009000BF00BF0846806B89
:103040000121490408431F49886300BF0846006BFB
:10305000012108431B4908630846006BC007C00FE5
:10306000009000BF00BF04F0A3FE17481749086096
:103070001021164881600021C1608021016100217A
:1030800041618161C16101620420104948600846C4
:10309000FDF7B4FE00BF0D48A066846200BF0122A8
:1030A00000210B20FEF7BCF80B20FEF7ABF8012245
:1030B00000211C20FEF7B4F81C20FEF7A3F838BD51
:1030C000004400400010024080000240B003002095
:1030D00070B504460E461546606F20285BD1002E61
:1030E00001D0002D01D1012070BD01210903A0688C
:1030F000884208D12069002805D1F007C00F0028B8
:1031000001D00120F0E700BF7020005D012801D14F
:103110000220E9E701217020015500BFE66450203C
:103120000553522005530020E06721206067A06E00
:10313000002820D01948A16EC8621948A16E086302
:103140001848A16E48630020A16E886323681A4660
:1031500028322B46E16CA06EFDF7A4FE00280AD0B1
:103160001020E06700BF00217020015500BF202023
:1031700060670120B8E740202168086200BF002195
:103180007020015500BF20688068802108432168B5
:1031900088600020A8E70220A6E700007B66000800
:1031A000B56600082966000810B5044601480068A5
:1031B000804710BD580000207047000010B51A4825
:1031C000007800282ED101201749087017481849A7
:1031D000086000211648C1630120C00714494860F7
:1031E00000211348C1610121416300218161816097
:1031F00007218163012101610021C160001D017768
:103200004177001F81620421416100212430017255
:103210000848406B012149020843064948630448B5
:10322000FDF71AFC10BD00005C00002000240140E6
:10323000F80300200010024001460020FF22120285
:103240000A40002A01D008221043094A0A40002AF5
:1032500001D004221043074A0A40002A01D002226A
:103260001043054A0A40002A01D00122104370474A
:10327000F0F00000CCCC0000AAAA0000F8B505468A
:103280000E46144600BF3549681A8D422FD008DC1F
:103290003348281800280CD001218902401A44D153
:1032A00016E001218902401A30D08900401A3CD131
:1032B0003CE000BF2B48C06A012108432949C8628D
:1032C0000846C06AC007C00F009000BF00BF3CE0C6
:1032D00000BF2448C06A022108432249C862084648
:1032E000C06A02210840009000BF00BF2DE000BF6F
:1032F0001C48C06A042108431A49C8620846C06ACB
:1033000004210840009000BF00BF1EE000BF154828
:10331000C06A082108431349C8620846C06A0821E8
:103320000840009000BF00BF0FE000BF00BF0D4885
:10333000C06A802108430B49C8620846C06A8021E0
:103340000840009000BF00BF00BF00BF00BF266064
:1033500021462846FDF70EFEF8BD0000000800508B
:10336000000000B00010024070B505462846FFF787
:1033700063FF0446A00005490858002804D0A000B7
:103380000A4611580020884770BD00003002002016
:10339000F8B50D4616461C462846FFF74DFF074672
:1033A000002C0FD0B8000A490C50284600F0E8FB6A
:1033B0000090002231460098FDF732FF0098FDF79B
:1033C00021FF03E00020B900014A5050F8BD000081
:1033D0003002002070B505460E461446E2B2314672
:1033E0002846FDF7C3FE70BD00B587B0142102A8C2
:1033F000FCF7F1FE00BF3548C06A0121084333499C
:10340000C8620846C06AC007C00F019000BF00BF75
:1034100000BF0846C06A022108432C49C86208461A
:10342000C06A02210840019000BF00BF00BF2748CA
:10343000C06A042108432549C8620846C06A0421BD
:103440000840019000BF00BF00BF2048C06A802133
:1034500008431E49C8620846C06A8021084001909E
:1034600000BF00BF03200390002004901848029082
:1034700002A905200007FDF77DFD1648029002A96C
:103480001548FDF777FD02A91448FDF773FD02A961
:103490001348FDF76FFD0D48C06A400840000B4916
:1034A000C8620846C06A022188430849C8620846C3
:1034B000C06A042188430549C8620846C06A802161
:1034C00088430249C86207B000BD000000100240F6
:1034D000FF9F0000FFFF00000004005000080050A4
:1034E000001C005010B50F480078002819D1FFF7D4
:1034F00065FE0D490868804700F078FA00F0BCF8D6
:1035000002F052FF0020FDF76FF90120FDF76CF982
:103510000220FDF769F90320FDF766F90120014952
:10352000087010BD5D000020247F000870B50446BF
:1035300000250026204600F03CFA054600F092F8EF
:10354000064600E000BF00F08DF8801BA842F9D3CA
:1035500070BD0000F0B585B004460E4600BF0022E5
:1035600031462E48FEF7B2FD00BF00BF2C48806AEE
:1035700087B200BF002221462848FEF779FD0022CD
:1035800031462648FEF7A2FD00BF2548806A80B27A
:10359000B842EAD1E07823494843C01C8508E07866
:1035A000C117890F091889108900411A01D11E49D4
:1035B00000E01E4901916178491E3D225143481C9B
:1035C000C10F09184A106178491E4B000199D94072
:1035D0008907890F511A4D19A078401E45191448C2
:1035E0004543B17870783C22504309183078E12285
:1035F00012015043081845190021AA0D89021143F0
:10360000AB020C4A7068101A00221818514103913D
:1036100002900399029805B0F0BD000070020020EE
:1036200000280040B505000050554400A0AA9900AC
:1036300080510100FF03000003207047014800682B
:1036400070470000BC02002010B586B001A9684692
:10365000FFF780FF044602480068201A06B010BD3C
:10366000BC02002010B586B001A96846FFF772FFC2
:103670000446204606B010BD10B507480078002863
:1036800008D100F061F800F055F800F095F801203D
:103690000149087010BD00005400002010B5114C05
:1036A0000021042000F04CFA012040040E4948613A
:1036B0002068806889140840000B002811D0206819
:1036C000C06809110840000A00280AD02068C068B4
:1036D00080210840054908432168C8602046FEF75C
:1036E00039FC10BD70020020000401407FFEFFFF86
:1036F00010B50446FFF7A8FF211A0D4A0020105EFE
:10370000C01C814204D90021042000F019FA03E012
:103710000121042000F014FA00F0D6F9012803D1A9
:1037200003480021415E641A204600F053F810BDA2
:103730005600002010B5FF2101310248FEF70FFCB2
:1037400010BD00007002002000B587B0174818496E
:103750000860002048601F21154881601549C1603C
:10376000002101618161C161FEF7E6FC002168462C
:10377000C1710121417181710171002201A90C48BF
:10378000FEF7AEFE00216846017241728172C1727D
:103790000020039006900590002202A90448FEF73D
:1037A0002FFF0348FEF7AAFB07B000BD002800402A
:1037B00070020020FF03000010B5054908461430D0
:1037C000FFF7C8FE0249091F08600846006810BDDF
:1037D000C0020020F0B589B0044600200890079090
:1037E0000026002700251422564902A8FCF7DAFC1F
:1037F0005448001F8069019000F0B2F852490398C4
:10380000081A80B2089021400898081880B20890E1
:10381000A40A6846857903E04C48241A681C85B2DE
:103820004A488442F8D26846077A04E0E120000161
:10383000241A781C87B2E12000018442F6D268463F
:10384000467A02E03C3C701C86B23C2CFAD26846B8
:10385000807A001980B2079009E001218902089856
:10386000401A80B208900798401C80B2079001214E
:10387000890208988842F0DA05E007983C3880B25F
:103880000790701C86B207983C28F6D204E03046B8
:103890003C3886B2781C87B23C2EF8D204E0384619
:1038A000183887B2681C85B2182FF8D26946C879D3
:1038B000C117890F091889108900411A10D168466B
:1038C0004079401E2249085CA84219DA68464079CE
:1038D000401E0A46115C2846FCF720FC8DB20FE022
:1038E00068464079401E1B49085CA84208DA6846D1
:1038F0004079401E0A46115C2846FCF70FFC8DB249
:1039000011490898081A1449486005204006886142
:10391000079888704E700F70084620300570684612
:10392000C07AC8700020C8614861FF200130486239
:103930000020C860086100220848FEF7B3FC09B007
:10394000F0BD0000C0020020FF0300008051010014
:10395000D07F0008C47F000894020020700200207D
:1039600010B5FF2101310948FEF7F9FA0748006850
:10397000C068802108400649084304490968C860B6
:10398000012040040349486110BD0000700200207E
:103990007FFEFFFF0004014001468A0A8905890D68
:1039A0007D20C00050437D23DB004B439B0AC018A1
:1039B000704770B506463046802103F014F904467E
:1039C0007D220023FCF7BEFB70BD000001B582B074
:1039D0000020C043012301AA02A900900248FEF77B
:1039E0001CFF684680880EBDD802002010B516481E
:1039F00016490860164802F05DFA1449C8610021B2
:103A000012488160FF2005301049486000210F48AE
:103A100001614161C16081620162012149028161EC
:103A2000002141620B48406B012109030843094909
:103A300048630648FEF7A7FE002801D0FCF7E2FF26
:103A400000F00AF810BD000000300140D80200204C
:103A5000809698000010024000B585B01421684699
:103A6000FCF7B9FB02200190002002900320039094
:103A7000002004906A4608211048FFF7FFFB6A46C1
:103A8000402105200007FFF7F9FB6A468021052049
:103A90000007FFF7F3FB01200190002002906A4627
:103AA0000121C90305200007FFF7E8FB0122D1032C
:103AB00005200007FFF78EFC05B000BD0004005094
:103AC00000E000BFFDE7000000BFEFF310821146E9
:103AD00072B6094A1268002A01D0002006E0074A9F
:103AE0001268002A01D0012000E0022000BF81F30B
:103AF000108800BF70470000700000207400002094
:103B000010B50A4600BFEFF31083194672B6002ABB
:103B100007D0012A0BD1094B1B680343074C2360D4
:103B200006E0064B1B688343044C236000E000BFA3
:103B300000BF00BF81F3108800BF10BD74000020DB
:103B400010B50A4600BFEFF31083194672B6002A7B
:103B500007D0012A0BD1094B1B680343074C236094
:103B600006E0064B1B688343044C236000E000BF63
:103B700000BF00BF81F3108800BF10BD700000209F
:103B80000146FF220132881A91423ED012DC1029F0
:103B900037D008DC01292DD002292CD004292CD0C3
:103BA00008292DD12AE020292CD040292BD080298A
:103BB00026D129E00F231B02C21A984229D00DDC1E
:103BC000FF380138002821D0FF38FF38023800289C
:103BD0001DD001229202801A12D119E001200003A7
:103BE000101A17D001225203801A14D05200801AE2
:103BF00006D111E000BF0520704700BF0620FBE79B
:103C000000BF00BF00BF00BF00BF00BF00BF00BFBC
:103C100000BF00BF00BF00BF0720EDE770470000F6
:103C2000FEB505460E4614461F46364802F020FBF8
:103C30000220FCF74DFE34480680028829463348AE
:103C4000FCF7B0FA60B232490870324807700120C0
:103C5000314908706320C043844202DD0120FCF733
:103C600037FE4F20C043844202DD0320FCF730FEC4
:103C70003B20C043844202DD0220FCF729FE3120B4
:103C8000C043844202DD0020FCF722FE00200090A9
:103C900001906A4605212846FCF7A0FE6846007898
:103CA000B5282AD103216846FCF722FE6946C97867
:103CB000884222D168464078002802D001281AD1D3
:103CC0000CE000BF6846817814A002F07FFB00BFC3
:103CD0006846807840B2154908700DE000BF68461C
:103CE000817813A002F072FB00BF6846807840B272
:103CF0001449087000E000BF00BF1348C16B0020EA
:103D00008847FEBDD00400206600002090040020FB
:103D10006D0000206E00002068000020576174656F
:103D20007254656D703A2025690A0D006C00002000
:103D30004F7574646F6F7254656D703A2025690A0F
:103D40000D0000006B000020247F000810B508491A
:103D5000486B804703200749087000BF06A002F0A7
:103D600035FB00BF0248C16B0020884710BD000032
:103D7000247F0008680000200A0D4F6E52784572BB
:103D8000726F720A0D00000010B50649486B80473B
:103D900002200549087000BF04A002F017FB00BF15
:103DA00010BD0000247F0008680000204F6E52788C
:103DB00054696D656F75740A0D00000010B50446F6
:103DC000034802F055FA01200249087010BD0000B6
:103DD000E80400206900002010B50649486B8047C0
:103DE00004200549087000BF04A002F0EFFA00BFEC
:103DF00010BD0000247F0008680000204F6E54783A
:103E0000446F6E650A0D000010B50649486B804787
:103E100005200549087000BF04A002F0D7FA00BFD2
:103E200010BD0000247F0008680000204F6E547809
:103E300054696D656F75740A0D00000010B5044675
:103E40000220FCF735FD0120FCF732FD0320FCF7D2
:103E50002FFD0020FCF72CFD10BD70470146F0201F
:103E6000084000090A23584302460807000F80183B
:103E7000C0B2704702460023114603E05B1C0846AF
:103E80000A38C1B20A29F9D21807000E0843704750
:103E900070B504462068C06840210840002815D14C
:103EA000401E2168C860FDF767F9054608E0FDF788
:103EB00063F9401B7D21C900884201D9032070BDF0
:103EC0002068C068402108400028F0D00020F6E7B4
:103ED00010B5FFF7E3FB10BDF8B5092000F0DAFFDD
:103EE0000646062000F0D6FF0704072000F0D2FFA8
:103EF00000020743082000F0CDFF07433D4600BF06
:103F0000280A0202A91A1E4A034653434A43803232
:103F1000120A9C1800BF0021092001F099FF3B20E4
:103F200000F0B8FFBF2108400746403739463B2024
:103F300001F08EFF00BF3B2000F0ACFF20210840C5
:103F40002028F8D00F4801F003F93B2000F0A2FF31
:103F5000BF2108400746403739463B2001F078FF33
:103F600000BF3B2000F096FF202108402028F8D019
:103F70003146092001F06CFF204601F0E9F8F8BD58
:103F8000093D000000A1BC33F8B504460E461546B5
:103F9000FF210531606888420ED13346002280211E
:103FA0002046009500F01DF8002818D0606D2021F3
:103FB000084360650320F8BD5120005D05280ED13F
:103FC0003346002201212046009500F00AF800281F
:103FD00005D0606D2021084360650320EBE70020D9
:103FE000E9E7F8B504460E4617461D4641E0681C51
:103FF00000283ED0FDF7C0F80699401AA84201D229
:10400000002D36D120684068E0218843216848604F
:10401000FF210531606888420ED10121C903A068E3
:10402000884203D04911A068884205D12068006801
:10403000402188432168086001214903A06A884221
:104040000DD100BF2068006888432168086020689F
:1040500000680121490308432168086000BF01216D
:104060005120015500BF00215020015500BF032001
:10407000F8BD206880683040B04201D1012000E0E6
:104080000020B842B3D10020F2E7704700B585B0F8
:1040900014216846FCF79FF803200190002002904D
:1040A000032003906A46022105200007FFF7E6F887
:1040B0000022022105200007FFF78CF96A46022141
:1040C0000948FFF7DBF8002202210748FFF782F9D1
:1040D0006A4604210448FFF7D1F80022042102486F
:1040E000FFF778F905B000BD0008005000B585B0B5
:1040F00014216846FCF76FF801200190002002901F
:10410000032003906A46022105200007FFF7B6F856
:104110000022022105200007FFF75CF96A46022110
:104120000948FFF7ABF8002202210748FFF752F9D0
:104130006A4604210448FFF7A1F80022042102483E
:10414000FFF748F905B000BD0008005001490860BC
:10415000704700000400002001460120704701461E
:104160000E2901DD802070470020FCE7014800791E
:104170007047000080010020F3B597B00020169032
:104180001798002802D0012871D171E09849C869B8
:10419000FCF7D2F90F910E901898FCF7CDF9079122
:1041A0000690302000F076FEF9218843002802D0E6
:1041B0000020904901E0002001460591049027204D
:1041C00000F068FEF8218843411C8948008C0818DB
:1041D0000190FCF79DF9039102908548001D807FB6
:1041E000012802D10020034601E00020814B024655
:1041F0000193009003990298FBF7F8FF0646059B90
:10420000049AFBF7F3FF0446079B069AFBF7EEFFC1
:104210000991089076480C30007E012803D10020D7
:104220000121890701E000200146044622460B4691
:1042300009990898FBF7DAFF00226F4B0B910A905F
:10424000FCF786F80D910C900F9B0E9AFCF7E8F89E
:1042500000226A4B11911090FCF77AF8139112909A
:1042600003F028FD15911490FCF774F91690BAE04C
:1042700000210C460D465E48406C072804D00828F3
:1042800005D0092809D105E000245D4D05E0002492
:104290005C4D02E000245C4D00BF00BF544940313A
:1042A0000A7A012191400846FCF732F90646324667
:1042B0000B4620462946FCF7B3F8159114900020D0
:1042C0004C49159B149AFCF7ABF81391129048498E
:1042D0004031C889FCF730F9064600224B4BFBF70A
:1042E00085FF07910690139B129AFCF731F8119104
:1042F00010903F494031497B081DFCF709F90791AF
:1043000006903B498A6C4031097B002901DD02217E
:1043100000E00021511A8800FCF70EF9019100908D
:104320001899CA003249896C8900511A0A461C3210
:104330002F494031897C090152182D494031097CAF
:10434000002901D0142100E00021501AFCF7F4F8F4
:104350000646019B009AFCF763F80391029003F074
:1043600035F905910490079B069AFBF7F1FF0F9131
:104370000E90002213460F990E98FCF709F902D20D
:104380000F990E9801E000200146064632460B4682
:1043900000201949FBF72AFF0D910C90139B129AEC
:1043A0000D990C98FBF7D4FF0B910A900B9B0A9A7E
:1043B00011991098FBF71AFF0991089000220F4BF2
:1043C00009990898FBF7C4FF0646114A114BFBF701
:1043D0000DFF0591049003F0ABFA07910690FCF7EE
:1043E000B9F8169000BF00BF169819B0F0BD0000D4
:1043F000800100200000F03F0000204000408F407E
:104400008084FE4080840E4180841E410000114063
:104410002B8716D9CEF7EF3F0520704710B503491B
:10442000096848688047801C10BD00000400002017
:1044300070B50546204805602049214801F056FE28
:104440001E49204801F052FE1C491F4801F04EFE53
:104450001E48006801680120884700F079FDFFF7D9
:104460003BFD002000F00CFF1848006881681848E8
:104470008847002412E061006118164A505C00F081
:10448000B1FE6200A218134BD21891786200A218F4
:10449000D218507801F0DCFC601CC4B2102CEAD3B6
:1044A000002000F09FFE00200B49087107490968B1
:1044B00048688047801C70BD00000020454D000802
:1044C000E801002000020020180200200400002063
:1044D00008000020447E00088001002000B585B05F
:1044E00014216846FBF777FE0D48019002200290E8
:1044F0006A4610210B48FEF7C1FE6A4602210948B0
:10450000FEF7BCFE6A4601210648FEF7B7FE6A4682
:10451000012149030448FEF7B1FE05B000BD0000CB
:1045200000001110000400500008005000B585B0D4
:1045300014216846FBF74FFE1548FFF707FE1548A4
:10454000019002200290032003906A461021124835
:10455000FEF794FE6A4602210F48FEF78FFE6A4678
:1045600001210D48FEF78AFE6A46012149030B48E6
:10457000FEF784FE01200190002002906A4601218E
:10458000090305200007FEF779FE05B000BD000015
:10459000200000200000111000040050000800500E
:1045A00010B50446002210210B482368FEF7F0FEE8
:1045B0000022022108486368FEF7EAFE002201217A
:1045C0000548A368FEF7E4FE0022012149030348E1
:1045D000E368FEF7DDFE10BD000400500008005047
:1045E000FEB507460C4615461E46012002900020E7
:1045F00001900090FFF7BAFD002801D00020FEBD19
:10460000384600F0EFFD204600F0A2FD052000F046
:1046100037FE0120FCF793FC01F050FD009009E00B
:10462000384600F06BFC01900198A84202DD0020A2
:10463000029004E0009801F049FDB042F0D300BFC1
:1046400001F0ACF90298DAE7F8B5064600200090D0
:10465000D5480079012802D002287DD17FE1D248D7
:104660004079002802D0012877D1CCE0CE480C3028
:10467000007E012844D13F2000F00CFC00906946E8
:1046800008780221084002283AD00B213E2001F090
:10469000DFFB10213F2001F0DBFBC44801F026FEC8
:1046A000C1480C30807E002806D1C14801F01EFEB2
:1046B0000020BD4908710CE00D2000F0EBFB40210B
:1046C0000843044621460D2001F0C2FBB84801F022
:1046D000CFFDB8480068002808D0B64800680069D7
:1046E000002803D0B3490968086980470021AE4813
:1046F000243001730C3041703038818741872CE1C0
:10470000A948408F00282ED1A748808F00282AD1A1
:10471000A548001D807F002805D10121A2483A301C
:1047200000F0E2FB05E0322000F0B4FB01469E48B9
:1047300041879D4A3032937A127B9A1AD1B29A4AB3
:10474000928F9D4BD01800F0CFFB9748418F808F00
:10475000091A9548808F01E023E1FDE0081881B235
:104760009148818715E0904A3032937A127B9A1AE9
:10477000D1B28D4A928F904BD01800F0B5FB8A4889
:10478000418F808F091A8848808F081881B2864827
:104790008187864801F0AAFD83480C30807E00287E
:1047A00005D181490871824801F0A0FD0CE00D207F
:1047B00000F070FB40210843044621460D2001F023
:1047C00047FB7B4801F054FD7A480068002810D070
:1047D00078480068806800280BD073483030022287
:1047E00082563038418F73480068002384687248CD
:1047F000A04700216C48243001730C3041703038E0
:1048000081874187A9E04021122001F021FB12207D
:1048100000F040FB009069460878202108402028DD
:104820001AD1122001F014FB5F484030807D00282F
:1048300001D15D4908715D4801F058FD5D4800688F
:10484000002808D05B4800680069002803D0594957
:1048500009680869804780E0192000F01BFB40B21E
:10486000801C81105048443001771A2000F012FB60
:1048700004464D4844301C214156002920DA443872
:1048800080684E4988420DD920469D382111411833
:10489000454844301C228256881801B24248603094
:1048A000418023E02046A438211141183E4844307D
:1048B0001C228256881801B23B486030418015E0C6
:1048C000394880683D49884208D920469D382111E1
:1048D000401801B234486030418007E02046A438D7
:1048E0002111401801B2304860304180132000F09F
:1048F000D1FA01462C4860300171102000F0CAFA4C
:10490000054629460D2001F0A3FA274860300179B9
:10491000294800F0E9FA24484030807D002801D180
:1049200021490871214801F0E1FC22480068002873
:1049300011D020480068806800280CD01A48443004
:104940001C23C3561C300222825E0179194800687C
:1049500085681948A84700E000BF00BF22E018485A
:1049600001F0C4FC10484079002807D0012804D188
:104970000821122001F06CFA00BF00BF00200A4994
:1049800008710C480068002808D00A4800680068D0
:10499000002803D0074909680868804700BF00BFA6
:1049A00000E000BF00BFF8BD800100200002002031
:1049B00018020020000000208000002040DD4A1F77
:1049C000E801002010B504465D480079012802D0B6
:1049D000022870D174E05A484079002802D001289A
:1049E0006BD150E0574801F081FC5548408F0028BA
:1049F00014D15348808F002810D15148001D807F6A
:104A0000002805D101214E483A3000F06DFA05E04A
:104A1000322000F03FFA0146494841874848418F1B
:104A2000808F091A46483030807B814214DB444A2B
:104A30003032927B521ED1B2414A928F424BD018F3
:104A400000F052FA3E48818F3030807B401E0818BB
:104A500081B23B48818715E0394A3032937A127B24
:104A60009A1AD1B2364A928F374BD01800F03CFADE
:104A70003348418F808F091A3148808F081881B2DE
:104A80002F4881871AE0314801F030FC8021122044
:104A900001F0DEF900202A4908712D48006800283D
:104AA00008D02B480068C068002803D0284909684E
:104AB000C868804702E040E0FFE700BF00BF3DE07C
:104AC0001F484079002802D0012833D131E01C482A
:104AD000418F808F091A1A483030C07B814211DD26
:104AE000174A3032D17B303A928F174BD01801F0F1
:104AF000D7F91348818F3030C07B081881B2104835
:104B0000818715E00E4A3032937A127B9A1AD1B21D
:104B10000B4A928F0C4BD01801F0C2F90848418F14
:104B2000808F091A0648808F081881B2044881874F
:104B300001E000E000BF00BF00E000BF00BF10BD0B
:104B400080010020180200208000002000020020C8
:104B50000000002070B5064600244B48007901286B
:104B600002D002287ED161E047484079002802D077
:104B7000012858D13AE00121434824300173007BD9
:104B8000012832D140483030407800282DD13F48AC
:104B900001F0ACFB01213C4830304170112000F0A5
:104BA00079F94010404241B23748303081701B20C3
:104BB00000F070F905021C2000F06CF905432C464A
:104BC00000BF200A0202A11A314A034653434A4356
:104BD0008032120A9B182C4A536300BF0C2000F04D
:104BE00059F941112848303001721DE02648403003
:104BF000C07C012816D10221122001F029F9254894
:104C0000006800280ED0234800684069002809D0B9
:104C10001C2000F03FF98506AD0E1E480068416972
:104C20002846884700E000BF00BF2AE016484079C8
:104C3000002802D0012820D100E01FE012484030B7
:104C4000C07C012818D10221122001F001F911487D
:104C50000068002810D00F480068406900280BD079
:104C60001C2000E00CE000F015F98506AD0E0948A7
:104C7000006841692846884700E000BF00BF00E0A7
:104C800000BF00BF70BD000080010020180200209E
:104C9000093D00000000002010B504461B48407983
:104CA000002802D001282ED100E02DE0122000F0D3
:104CB000F1F8C007C00F002812D00521122001F022
:104CC000C7F81348006800281CD0114800688069A4
:104CD000002817D00E48006881690120884711E03C
:104CE0000421122001F0B4F809480068002809D016
:104CF000074800688069002804D005480068816979
:104D00000020884700E000BF00BF10BD80010020E8
:104D10000000002001460A484079002802D00128FE
:104D20000BD109E006482430007B002803D1012282
:104D300003482430027301E000E000BF00BF704769
:104D40008001002070B505463E480079012802D058
:104D5000022874D13BE03B484079002829D100214A
:104D60003848243001730C304170303881874187D6
:104D70000B213E2001F06CF810213F2001F068F873
:104D800030480C30807E01280DD10D2000F082F8D3
:104D900040210843044621460D2001F059F82A48D5
:104DA00001F066FA05E0002026490871264801F066
:104DB0009DFA26480068002808D024480068C0688A
:104DC000002803D021490968C868804738E000F00E
:104DD000BFF8FFF781F8002000F052FA002412E03B
:104DE000610061181A4A505C00F0FCF96200A218D8
:104DF000174BD21891786200A218D218507801F09F
:104E000027F8601CC4B2102CEAD3002000F0EAF9A5
:104E10000C494031087F00F06BFA00200949087105
:104E20000A480068002808D0084800684068002840
:104E300003D0064909684868804701E0FFE700BFE2
:104E400000BF70BD8001002018020020000000207B
:104E5000447E000870B50025012000F0C3F9FF2151
:104E6000112000F0F5FF052000F00AFA00240BE005
:104E70000120FCF764F82C2000F00CF8C007C00FEC
:104E8000A0400543601CC4B2202CF1DB00F086FD7D
:104E9000284670BD38B5044601226946204600F018
:104EA00003F86846007838BDF8B505460E46174643
:104EB00000220121C90305200007FEF78BFA6806CE
:104EC000400EFEF783FD002405E00020FEF77EFD86
:104ED0003055601CC4B2BC42F7DB0122D10305206F
:104EE0000007FEF777FAF8BD70B504460D462A466E
:104EF00021460020FFF7D8FF70BD000070B50446C2
:104F00000025002C02D0012C17D105E01120FFF75D
:104F1000C1FF4010454213E00B4880680B498842AE
:104F200005D91B20FFF7B6FF05469D3D04E01B2079
:104F3000FFF7B0FF0546A43D02E00025ED4300BFAA
:104F400000BF284670BD00008001002040DD4A1FE0
:104F500000B585B014216846FBF73DF901200190AA
:104F600000200290032003906A4601210B48FEF7BF
:104F700085F9002201210948FEF72CFA0120FBF7F0
:104F8000DEFF002001906A4601210448FEF776F911
:104F90000620FBF7D4FF05B000BD0000000800505C
:104FA00073B50446002548484079002802D00128FE
:104FB0003CD13CE000214448818768460179424861
:104FC0004187001D807F002804D1012101A800F045
:104FD00067FF04E068460179322000F039FF684637
:104FE0000079002809DD68460079402805DC68461C
:104FF000017935483030C17309E0684602792146AD
:10500000324802F0ADFD20212F483030C1732E48C8
:105010003030C17B204600F043FF2B48818F303079
:10502000C07B081881B228488187856A47E02648F6
:105030004030407D01280ED13320FFF72BFFBE21E9
:10504000084006463146332000F002FF19213B207C
:1050500000F0FEFE0DE03320FFF71CFFBE210840EC
:10506000461C3146332000F0F3FE1D213B2000F0AA
:10507000EFFE684601791448603001716846017995
:10508000222000F0E5FE00210E2000F0E1FE0021CC
:105090000D2000F0DDFE0120FFF7FCFEF821884323
:1050A000002804D100F09AFC0120FBF748FF684675
:1050B0000179204600F0F4FE0348856D00BF00BF73
:1050C000284600F0A5FC7CBD800100208000002067
:1050D00070B504460920FFF7DDFE0546032C06D017
:1050E000052C18D0062C17D0072C13D115E08020E2
:1050F0002840802805D1012202210E48FEF76AF9D6
:1051000004E0012204210B48FEF764F901200A495A
:1051100008700CE000BF00BF00BF00200649087007
:105120000122022105200007FEF754F900BF00BF4D
:1051300070BD0000000800508001002010B504463A
:10514000002C02D1FEF7D2FF01E0FEF79FFF10BD59
:10515000F8B505461148856000BF11492846FAF7A1
:10516000C7FF06460E4870432F1A39020D4A8818A9
:105170000B49FAF7BDFF3102441800BF2002010EAF
:10518000062000F065FE2004010E072000F060FEFE
:10519000E1B2082000F05CFEF8BD000080010020B4
:1051A000093D0000841E000070B504460D462046EF
:1051B00000F018F8002C02D0012C0ED108E00848AD
:1051C000807F002803D12946322000F041FE04E010
:1051D0002946232000F03CFE00BF00BF70BD000048
:1051E0008401002070B504460120FFF753FE8021A2
:1051F0000840002803D001212048417102E000212D
:105200001E4841711D484079A04200D170BD1B4825
:1052100044714079002802D0012815D000BF002039
:1052200000F02EF80120FFF735FE45066D0E2946E9
:10523000012000F00DFE0021402000F009FE302189
:10524000412000F005FE16E0002000F019F80120D2
:10525000FFF720FE4006400E054680352946012016
:1052600000F0F6FD0021402000F0F2FD0021412079
:1052700000F0EEFD00BF00BF00BFC7E780010020C7
:1052800070B50446002C15D10120FFF703FEF8216C
:105290000840204305462946012000F0D9FD134867
:1052A00000680169012088471048006801680020F3
:1052B000884719E00D4800680168012088470B48BD
:1052C0000068016900208847084800684169204655
:1052D00088470120FFF7DEFDF821084020430546FE
:1052E0002946012000F0B4FD70BD0000040000203C
:1052F00010B504460120FFF775FF07480477012C1D
:1053000004D13421392000F0A3FD03E0122139201B
:1053100000F09EFD10BD0000C001002070B50446E5
:10532000002500260920FFF7B5FD05464D20FFF7B3
:10533000B1FD06462046FEF712FF6906490E0843F6
:1053400005468020284080282CD1112C04DD3046D1
:10535000F8210840C61D03E03046F8210840061D2C
:105360007007400F07280ED1052C00DA0524142CF5
:1053700000DD14242846F0210840611F0907090FA9
:105380000843054626E0022C00DA0224112C00DD39
:1053900011242846F0210840A11E0907090F0843DF
:1053A000054617E0002C0ADD0F2C00DD0F242846EF
:1053B00080210840702108432043C5B20AE0032041
:1053C000C043844200DA0446284680210840211D5B
:1053D0000843C5B22946092000F03AFD31464D2068
:1053E00000F036FD70BD000070B5044600259948F8
:1053F00000F07CFF98484079002802D0012833D182
:1054000033E095480C30857E4020FFF743FD800651
:10541000800EC32108400C21084306463146402037
:1054200000F016FD4120FFF735FD8006800EFE21BD
:1054300008400646C1363146412000F009FD3520BE
:10544000FFF728FD8106890E8348303081731E21C5
:105450000D2000F0FDFC00217F48243001730C304A
:105460004170303881874187C7E07B484030407DBC
:1054700001280FD13320FFF70DFDBE21084006465D
:1054800041363146332000F0E3FC19213B2000F087
:10549000DFFC0DE03320FFF7FDFCBE210840461C79
:1054A0003146332000F0D4FC1D213B2000F0D0FC1D
:1054B0006948406C092869D23120FFF7EBFC4606A9
:1054C000760E3146312000F0C3FC0021302000F080
:1054D000BFFC6148406C030001F09DFB0906111CF4
:1054E00027323D484D52570048212F2000F0B0FC94
:1054F00059498968594A8818FFF72AFE45E044212E
:105500002F2000F0A5FC54498968554A8818FFF7F8
:105510001FFE3AE044212F2000F09AFC4E49896892
:10552000504A8818FFF714FE2FE044212F2000F086
:105530008FFC494989684C4A8818FFF709FE24E026
:1055400044212F2000F084FC43498968474A881889
:10555000FFF7FEFD19E044212F2000F079FC3E49C1
:105560008968434A8818FFF7F3FD0EE040212F2099
:1055700000F06EFC09E040212F2000F069FC04E0FF
:1055800040212F2000F064FC00BF09E03120FFF72C
:1055900081FC8021084306463146312000F058FC4A
:1055A0002D484030857DC07C012810D11D2111205F
:1055B00000F04EFC4020FFF76DFC8006800EF321CA
:1055C000084006463146402000F042FC0CE01F2116
:1055D000112000F03DFC4020FFF75CFC8606B60E73
:1055E0003146402000F034FC00210F2000F030FC58
:1055F00000210D2000F02CFC00BF00BFFF21013175
:105600001C48FAF7E8FD012013490871002C06D068
:105610002146194800F017FE174800F029FE0E48F1
:10562000407900280BD10520FFF72AFE0A48C16AFD
:10563000124800F008FE114800F01AFE08E0012DA3
:1056400003D10520FFF71CFE02E00620FFF718FE3D
:1056500070BD0000E801002080010020821E0000D3
:10566000B4280000043D00005E510000127A0000E2
:10567000C6A20000800000200002002018020020C6
:10568000FFB58DB00D461446199F179E0D98FFF774
:10569000A9FD0D98002802D0012873D197E0B948E0
:1056A0004561C46116998161001D87771A99C17798
:1056B00008301B9901761E9941761F9981760C3826
:1056C00006842046FAF738FF02460B460191009007
:1056D0000020AD49FAF7A4FE0022AC4B03910290E2
:1056E000FAF736FE079106901898FAF725FF05910C
:1056F0000490079B069AFAF72BFE0022A44B09910F
:105700000890FAF725FE0B910A90FAF723FF01465D
:105710009C48C1622046FAF70FFF02460B460991EA
:10572000089000209B49FAF77BFE0B910A90FAF74C
:1057300011FF84B2210A022000F08AFBE1B20320AB
:1057400000F086FB2846FBF76DF901460B9012200E
:1057500000F07EFB1698FBF765F901460B901320CD
:1057600000F076FB3004010E252000F071FBF1B251
:10577000262000F06DFB012F05D132201A9900F090
:1057800067FB04E0FBE0FF21322000F061FB3020EA
:10579000FFF780FBEF2108404006400E012F01D1AA
:1057A000002100E0802108431B99090108430146BC
:1057B0000B90302000F04CFB3120FFF76BFB4021B9
:1057C000084301460B90312000F042FBD7E0022D48
:1057D00001D900BFFEE7ED1D6A484564846440308E
:1057E00010994173C68107741A9941741B99817489
:1057F0001C99C1741D9901751E9941751F99817578
:105800000C2C01D90C2402E0062C00D20624072D12
:1058100003D10B2C05D00C2C03D0082D06D10C2C59
:1058200004D1012157484030017303E0002155485D
:10583000403001731D20FFF72DFB0007000FF02102
:105840000840290108431099490008433843C0B271
:1058500001460B901D2000F0FBFA1E20FFF71AFBFB
:105860000007000FF8210840210108431B99890017
:10587000084318990912FC2291430843C0B201461B
:105880000B901E2000F0E4FA2620FFF703FBF7211F
:1058900008403C494031097BC9000843C0B2014679
:1058A0000B90262000F0D4FA1898C1B21F2000F007
:1058B000CFFA3004010E202000F0CAFAF1B2212004
:1058C00000F0C6FA012F03D122201A9900F0C0FA85
:1058D0002C484030C07C012810D14420FFF7DAFA70
:1058E0004006400E803001460B90442000F0B0FA94
:1058F00024484030017D242000F0AAFA092D0DD162
:10590000204880682449884208D90221362000F0C6
:105910009FFA64213A2000F09BFA0EE0092D08D18D
:105920000221362000F094FA7F213A2000F090FA0C
:1059300003E00321362000F08BFA062C0FD1312032
:10594000FFF7A8FAF8210840401D01460B903120CE
:1059500000F07EFA0C21372000F07AFA0EE03120B8
:10596000FFF798FAF8210840C01C01460B9031203F
:1059700000F06EFA0A21372000F06AFA00BF00BF7B
:1059800011B0F0BD800100200000F03F0000204079
:1059900000408F4080847E4140DD4A1F10B50A4898
:1059A00000F0A4FC094800F0A1FC094800F09EFCAE
:1059B0000020FFF765FC0748006801680020884761
:1059C00000200549087110BD00020020E8010020F8
:1059D00018020020040000208001002010B50848B3
:1059E00000F084FC074800F081FC074800F07EFCD2
:1059F0000120FFF745FC00200449087110BD00009C
:105A000000020020E8010020180200208001002090
:105A100070B50446304800F069FC21462F4800F07C
:105A200012FC2F484079002802D0012849D121E0FA
:105A30004020FFF72FFA8006800EC321084005465C
:105A400010352946402000F003FA4120FFF722FAE2
:105A50008006800EFE21084005462946412000F0C0
:105A6000F7F93520FFF716FA8106890E1C48303009
:105A7000817326E01A484030C07C012811D1F521FD
:105A8000112000F0E5F94020FFF704FA8006800EAF
:105A9000F3210840054640352946402000F0D8F95A
:105AA0000EE0F721112000F0D3F94020FFF7F2F9C2
:105AB0008006800E054640352946402000F0C8F992
:105AC00000BF00BF022006490871044800F0D0FB67
:105AD0000320FFF7D5FB70BD00020020E801002085
